:100000000C9496000C94AB000C94AB000C94AB00D9
:100010000C94AB000C94AB000C94AB000C94AB00B4
:100020000C94AB000C94AB000C94AB000C94AB00A4
:100030000C94AB000C94AB000C94AB000C94AB0094
:100040000C94AB000C94AB000C94AB000C94AB0084
:100050000C94AB00B900D200EB0004011C011C01A0
:100060001C011C011C011C011C011C011C011C01A8
:100070001C011C011C011C011C011C011C011C0198
:100080001C011C011C011C011C011C011C011C0188
:100090001C011C01B900D200EB000401290142013E
:1000A0005B0174018C018C018C018C018C018C0131
:1000B0008C018C018C018C018C018C018C018C01D8
:1000C0008C018C018C018C018C018C018C018C01C8
:1000D0008C018C018C018C018C018C012901420165
:1000E0005B0174019901AB01BD01CF01E101E101A7
:1000F000E101E101E101E101E101E101E101E101F0
:10010000E101E101E101E101E101E101E101E101DF
:10011000E101E101E101E101E101E101E101E101CF
:10012000E101E1019901AB01BD01CF0111241FBE25
:10013000CFE5D8E0DEBFCDBF10E0A0E6B0E0EAED4D
:10014000F9E002C005900D92A83CB107D9F70E94D2
:10015000FE030C94EB040C94000090E0FC01E154CD
:10016000F109E432F10508F067C0E65DFF4F0C9439
:10017000E504413059F42AB381E090E002C0880FD1
:10018000991F6A95E2F7822B8ABB08952AB381E012
:1001900090E002C0880F991F6A95E2F7809582234C
:1001A0008ABB0895413059F427B381E090E002C042
:1001B000880F991F6A95E2F7822B87BB089527B3B2
:1001C00081E090E002C0880F991F6A95E2F7809560
:1001D000822387BB0895413059F424B381E090E035
:1001E00002C0880F991F6A95E2F7822B84BB08959D
:1001F00024B381E090E002C0880F991F6A95E2F76E
:100200008095822384BB0895413059F421B381E065
:1002100090E002C0880F991F6A95E2F7822B81BB9C
:10022000089521B381E090E002C0880F991F6A957C
:10023000E2F78095822381BB089590E0FC01E154B0
:10024000F109E432F10508F067C0E25BFF4F0C945E
:10025000E504413059F42BB381E090E002C0880FEF
:10026000991F6A95E2F7822B8BBB08952BB381E02F
:1002700090E002C0880F991F6A95E2F7809582236B
:100280008BBB0895413059F428B381E090E002C05F
:10029000880F991F6A95E2F7822B88BB089528B3CF
:1002A00081E090E002C0880F991F6A95E2F780957F
:1002B000822388BB0895413059F425B381E090E052
:1002C00002C0880F991F6A95E2F7822B85BB0895BB
:1002D00025B381E090E002C0880F991F6A95E2F78C
:1002E0008095822385BB0895413059F422B381E083
:1002F00090E002C0880F991F6A95E2F7822B82BBBB
:10030000089522B381E090E002C0880F991F6A959A
:10031000E2F78095822382BB089590E0FC01E154CE
:10032000F109E432F10508F04CC0EE58FF4F0C948F
:10033000E50429B381E090E0062E02C0880F991FE2
:100340000A94E2F730E08223932302C095958795C3
:100350006A95E2F7089526B381E090E0062E02C088
:10036000880F991F0A94E2F730E08223932302C09A
:10037000959587956A95E2F7089523B381E090E01B
:10038000062E02C0880F991F0A94E2F730E08223FC
:10039000932302C0959587956A95E2F7089520B357
:1003A00081E090E0062E02C0880F991F0A94E2F7C0
:1003B00030E08223932302C0959587956A95E2F7F2
:1003C000089580E00895823419F118F4813439F0E9
:1003D00008958334B1F1843409F44CC00895413058
:1003E00059F42BB381E090E002C0880F991F6A9501
:1003F000E2F7822B8BBB08952BB381E090E002C023
:10040000880F991F6A95E2F7809582238BBB089528
:10041000413059F428B381E090E002C0880F991F61
:100420006A95E2F7822B88BB089528B381E090E0BB
:1004300002C0880F991F6A95E2F78095822388BBD6
:100440000895413059F425B381E090E002C0880F4F
:10045000991F6A95E2F7822B85BB089525B381E049
:1004600090E002C0880F991F6A95E2F78095822379
:1004700085BB0895413059F422B381E090E002C079
:10048000880F991F6A95E2F7822B82BB089522B3E9
:1004900081E090E002C0880F991F6A95E2F780958D
:1004A000822382BB0895CF93DF93D82FC62F462F88
:1004B000417064E00E941D01C1FB442740F965E0E2
:1004C0008D2F0E941D01C2FB442740F966E08D2F4D
:1004D0000E941D01C3FB442740F967E08D2F0E9455
:1004E0001D01DF91CF9108958EBB9FBB6DBBE29A3A
:1004F000E19AE199FECF08958EBB9FBBE09A8DB340
:10050000089541E060E084E40E94AD0041E061E0D4
:1005100084E40E94AD0041E062E084E40E94AD000A
:1005200041E063E084E40E94AD0040E064E084E4E4
:100530000E94AD0040E065E084E40E94AD0040E030
:1005400066E084E40E94AD0040E067E084E40E943D
:10055000AD0041E064E084E40E94E30141E065E035
:1005600084E40E94E30141E066E084E40E94E30148
:1005700041E067E084E40E94E30108950F931F9334
:10058000CF93DF93CDB7DEB760970FB6F894DEBF99
:100590000FBECDBF80E1E0E6F0E0DE0111960190F4
:1005A0000D928A95E1F700E041E060E084E40E946A
:1005B0001D0141E061E084E40E941D0141E062E030
:1005C00084E40E941D0141E063E084E40E941D0177
:1005D00040E0602F84E40E941D0110E064E0610FA0
:1005E00084E40E948D0181110DC0E1E0F0E0EC0F88
:1005F000FD1F84E0089FE00DF11D1124E10FF11DA6
:10060000808107C01F5F143049F70F5F043061F627
:100610008FEF60960FB6F894DEBF0FBECDBFDF91AF
:10062000CF911F910F91089541E060E082E40E9414
:100630001D018FE891E00197F1F700C0000040E054
:1006400060E082E40E941D018FE891E00197F1F7DC
:1006500000C000000895CF93C82F682F62956F7077
:1006600081E40E94530240E061E082E40E941D01A7
:100670000E9414036C2F81E40E94530240E061E069
:1006800082E40E941D010E94140387EC90E0019710
:10069000F1F700C00000CF9108958FE39CE9019726
:1006A000F1F700C0000041E064E081E40E94AD0089
:1006B00041E065E081E40E94AD0041E066E081E454
:1006C0000E94AD0041E067E081E40E94AD0041E09E
:1006D00060E082E40E94AD0041E061E082E40E94BB
:1006E000AD0041E062E082E40E94AD0040E062E0E3
:1006F00082E40E941D0182E00E942B038FEC97E0B0
:100700000197F1F700C0000088E20E942B0387ECFC
:1007100090E00197F1F700C000008EE00E942B03EB
:1007200087EC90E00197F1F700C0000081E00E94A3
:100730002B038FEC97E00197F1F700C0000086E0F3
:100740000E942B0387EC90E00197F1F700C00000B6
:100750000895CF93C82F682F62956F7081E40E942F
:10076000530241E061E082E40E941D010E941403F3
:100770006C2F81E40E94530241E061E082E40E9418
:100780001D010E941403CF910895CF93DF93EC01D4
:100790008881882331F021960E94A90389918111D3
:1007A000FBCFDF91CF91089581E00E942B038FEC66
:1007B00097E00197F1F700C0000008959FEF980FB0
:1007C000923070F49FEF960F903160F4813019F4FD
:1007D0008FE7860F0AC0823039F48FEB860F05C091
:1007E00080E803C080E801C080E00E942B0387EC12
:1007F00090E00197F1F700C000000895EF92FF929A
:100800000F931F93CF93DF9300D000D0CDB7DEB707
:100810000E944D030E94810280E290E00E947C02CF
:100820008F3F09F0C3C080E790E00E94C5030F2E00
:10083000F1E2EF2EF12CF02D0E94BE02182F8F3F17
:10084000D9F3682FC7010E947402812F0E94A90367
:100850002FEF84E39CE0215080409040E1F700C0FE
:10086000000069EE6E0D81E00E94DE038AE20E94C4
:10087000A903EFEFEE1AFE0AF5E2EF16F104E1F636
:1008800060E080E290E00E94740290C00E94D40375
:100890008AE790E00E94C503CE0101967C011CE02E
:1008A0000E94BE028F3FE1F3F70181937F010E9416
:1008B000A903FFEF24E38CE0F15020408040E1F7F2
:1008C00000C00000612F81E00E94DE038AE20E94E6
:1008D000A9031F5F103121F7198181E290E00E9486
:1008E0007C02181324C01A8182E290E00E947C02EC
:1008F00018131DC01B8183E290E00E947C02181334
:1009000016C01C8184E290E00E947C0218130FC084
:100910000E94D40386E890E00E94C50361E082E073
:100920000E94DE0381E990E00E94C50341C00F32BE
:1009300029F10E94D40380EA90E00E94C5039FEF52
:10094000E9E6F8E19150E040F040E1F700C0000036
:1009500061E082E00E94DE038FEA90E00E94C5031E
:10096000802F0E94A9032FEF89E698E12150804053
:100970009040E1F700C00000015088CF0E94D403EE
:1009800080EA90E00E94C50361E082E00E94DE03FD
:100990008CEB90E00E94C503EFEFF9E628E1E1500F
:1009A000F0402040E1F700C0000002C001E36ECF3C
:1009B00080E090E00F900F900F900F90DF91CF911B
:1009C0001F910F91FF90EF900895EE0FFF1F05907C
:0A09D000F491E02D0994F894FFCF94
:1009DA003738392F3435362A3132332D43303D2BCF
:1009EA0050415353205345543A00454E54455220E2
:1009FA00504153533A0052494748542050415353A7
:100A0A000053414645204953204F50454E45440026
:100A1A0057524F4E472050415353574F5244004E5E
:100A2A00554D204F4620545249453A0053414645B8
:080A3A0020434C4F53454400DA
:00000001FF
